S01000004441324354335F322E7372656302
S11300000C9434000C943E000C943E000C943E007E
S11300100C943E000C943E000C943E000C943E0064
S11300200C943E000C943E000C943E000C943E0054
S11300300C943E000C943E000C944E000C943E0034
S11300400C943E000C943E000C943E000C943E0034
S11300500C943E000C943E000C943E000C943E0024
S11300600C943E000C943E0011241FBECFEFD8E048
S1130070DEBFCDBF0E9440000C9469000C940000C8
S1130080229A2A9A16BC82E084BD85E085BDEEE6FC
S1130090F0E08081826080837894FFCF1F920F927A
S11300A00FB60F92112480E090E035E021E044E0A7
S11300B0329903C016BC80E090E0A89BFECF36BD09
S11300C025BB01968F34910514F415B8F1CF45B9C9
S10900D0EFCFF894FFCF0E
S9030000FC
