S00E00004441344254322E7372656395
S11300000C9434000C943E000C943E000C943E007E
S11300100C943E000C943E000C943E000C943E0064
S11300200C943E000C943E000C943E000C943E0054
S11300300C943E000C943E000C943E000C943E0044
S11300400C943E000C943E000C943E000C943E0034
S11300500C943E000C943E000C943E000C943E0024
S11300600C943E000C943E0011241FBECFEFD8E048
S1130070DEBFCDBF0E944B000C9483000C940000A3
S113008080E480937C00EAE7F0E08081876C8083E1
S113009010927B0008956894AA24A7F8B12C0F2E1F
S11300A0F2EA6F2EF02D0F2EF1E8CF2ED12CF02D89
S11300B00F2EFBE17F2EF02D0F2EF6E8EF2EF12C04
S11300C0F02D07E813E1C8E7D0E00F2EF8E88F2EF3
S11300D0912CF02DF5016082F60170820E9440009F
S11300E0F70111830083219A88819981F401918316
S11300F08083FFEF20E782E0F15020408040E1F769
S10D010000C00000E7CFF894FFCF21
S9030000FC
