:100000000C9434000C943E000C943E000C943E0082
:100010000C943E000C943E000C943E000C943E0068
:100020000C943E000C943E000C943E000C943E0058
:100030000C943E000C943E000C943E000C943E0048
:100040000C943E000C943E000C943E000C943E0038
:100050000C943E000C943E000C943E000C943E0028
:100060000C943E000C943E0011241FBECFEFD8E04C
:10007000DEBFCDBF0E9440000C945E000C940000D7
:1000800084E084B914B885E080938100E4E8F0E06E
:1000900024E01182108280819181823B9141D9F7C5
:1000A00085B1822785B911821082808191818C3837
:1000B0009A41D9F785B1822785B9EBCFF894FFCF64
:00000001FF
