S01000004441324354325F312E7372656304
S11300000C9434000C943E000C943E000C943E007E
S11300100C943E000C943E000C943E000C943E0064
S11300200C943E000C943E000C943E000C943E0054
S11300300C943E000C943E000C943E000C943E0044
S11300400C944D000C943E000C943E000C943E0025
S11300500C943E000C943E000C943E000C943E0024
S11300600C943E000C943E0011241FBECFEFD8E048
S1130070DEBFCDBF0E9440000C9468000C940000C9
S1130080229A2A9A16BC14BC85E085BDEEE6F0E0FF
S11300908081816080837894FFCF1F920F920FB686
S11300A00F92112480E03DE121E044E0A89BFECFC3
S11300B036BD25BB833121F495B1942795B906C08B
S11300C0813321F485B1842785B980E08F5FEECF39
S10700D0F894FFCFCE
S9030000FC
