S00F0000444132425431432E7372656354
S11300000C9434000C943E000C943E000C943E007E
S11300100C943E000C943E000C943E000C943E0064
S11300200C943E000C943E000C943E000C943E0054
S11300300C943E000C943E000C943E000C943E0044
S11300400C943E000C943E000C943E000C943E0034
S11300500C943E000C943E000C943E000C943E0024
S11300600C943E000C943E0011241FBECFEFD8E048
S1130070DEBFCDBF0E9440000C944C000C940000E5
S113008081E02FEF38E09DE3215030409040E1F7CC
S10F009000C0000085B9F5CFF894FFCF44
S9030000FC
