:100000000C9434000C943E000C943E000C943E0082
:100010000C943E000C943E000C943E000C943E0068
:100020000C943E000C943E000C943E000C943E0058
:100030000C943E000C943E000C944E000C943E0038
:100040000C943E000C943E000C943E000C943E0038
:100050000C943E000C943E000C943E000C943E0028
:100060000C943E000C943E0011241FBECFEFD8E04C
:10007000DEBFCDBF0E9440000C9469000C940000CC
:10008000229A2A9A16BC82E084BD85E085BDEEE600
:10009000F0E08081826080837894FFCF1F920F927E
:1000A0000FB60F92112480E03DE121E044E0A89BCF
:1000B000FECF36BD25BB833121F495B1942795B988
:1000C00006C0813321F485B1842785B980E08F5F34
:0600D000EECFF894FFCF13
:00000001FF
