S01000004441324354315F322E7372656304
S11300000C9434000C943E000C943E000C943E007E
S11300100C943E000C943E000C943E000C943E0064
S11300200C943E000C943E000C943E000C943E0054
S11300300C943E000C943E000C943E000C943E0044
S11300400C943E000C943E000C943E000C943E0034
S11300500C943E000C943E000C943E000C943E0024
S11300600C943E000C943E0011241FBECFEFD8E048
S1130070DEBFCDBF0E9440000C945F000C940000D2
S1130080229A2A9A87B117B888B188B914BC85E036
S113009085BD80E090E035E021E044E0329903C082
S11300A016BC80E090E0A89BFECF36BD25BB019630
S11300B08F34910514F415B8F1CF45B9EFCFF89406
S10500C0FFCF6C
S9030000FC
